:100000000C9446000C9465000C9465000C946500FB
:100010000C9465000C9465000C9465000C946500CC
:100020000C9465000C9465000C9465000C946500BC
:100030000C9465000C9494020C9465000C9465007B
:100040000C9465000C9465000C9465000C9465009C
:100050000C9465000C9465000C9465000C9465008C
:100060000C9465000C9465000C9465000C9465007C
:100070000C9465000C9465000C9465000C9465006C
:100080000C9465000C9465000C94650011241FBE4F
:10009000CFEFD0E4DEBFCDBF11E0A0E0B1E0EEE3F2
:1000A000FFE000E00BBF02C007900D92AE31B10738
:1000B000D9F721E0AEE1B1E001C01D92A236B2074E
:1000C000E1F70E94E2050C949D070C940000CF9389
:1000D000DF9300D01F92CDB7DEB789837B836A831D
:1000E00089818A3031F48A819B81BC018DE00E9434
:1000F000670080EC90E0FC018081882F90E08072A6
:100100009927892BB1F386EC90E02981FC012083AB
:1001100080E090E00F900F900F90DF91CF910895C5
:10012000CF93DF9300D01F92CDB7DEB789836A8368
:100130004B838B81882371F08A81282F30E081E006
:1001400090E002C0880F991F2A95E2F7982F8981C5
:10015000892B0EC08A81282F30E081E090E002C018
:10016000880F991F2A95E2F7982F90958981892306
:100170000F900F900F90DF91CF910895CF93DF9361
:1001800000D0CDB7DEB789836A838A81282F30E01B
:1001900081E090E002C0880F991F2A95E2F7982F1E
:1001A000898189230F900F90DF91CF9108950F934C
:1001B0001F93CF93DF93CDB7DEB708E210E040E0A6
:1001C00064E08FEF0E949000F8018083000086E2D7
:1001D00090E0FC018081809560E00E94BE00882351
:1001E00011F081E3D3C086E290E0FC01808180952C
:1001F00061E00E94BE00882311F084E3C7C086E25C
:1002000090E0FC018081809562E00E94BE0088231E
:1002100011F087E3BBC086E290E0FC01808180950D
:1002200063E00E94BE00882311F08AE2AFC008E2BA
:1002300010E040E065E08FEF0E949000F8018083BD
:10024000000086E290E0FC018081809560E00E94E1
:10025000BE00882311F082E399C086E290E0FC01A1
:100260008081809561E00E94BE00882311F085E3C3
:100270008DC086E290E0FC018081809562E00E9462
:10028000BE00882311F088E381C086E290E0FC0183
:100290008081809563E00E94BE00882311F080E396
:1002A00075C008E210E040E066E08FEF0E94900029
:1002B000F8018083000086E290E0FC018081809557
:1002C00060E00E94BE00882311F083E35FC086E2F5
:1002D00090E0FC018081809561E00E94BE0088234F
:1002E00011F086E353C086E290E0FC0180818095A6
:1002F00062E00E94BE00882311F089E347C086E2D5
:1003000090E0FC018081809563E00E94BE0088231C
:1003100011F083E23BC008E210E040E067E08FEFBD
:100320000E949000F8018083000086E290E0FC01CA
:100330008081809560E00E94BE00882311F081E4F6
:1003400025C086E290E0FC018081809561E00E94FA
:10035000BE00882311F082E419C086E290E0FC011F
:100360008081809562E00E94BE00882311F083E4C2
:100370000DC086E290E0FC018081809563E00E94E0
:10038000BE00882311F084E401C080E0DF91CF91AA
:100390001F910F910895CF93DF93CDB7DEB72C97C0
:1003A0000FB6F894DEBF0FBECDBF6D837E838F8303
:1003B000988729873A874B875C878D819E81AF819B
:1003C000B88529853A854B855C85BC01CD010E94A5
:1003D0007B07DC01CB0189839A83AB83BC83898152
:1003E0009A81AB81BC81892B8A2B8B2B29F489853F
:1003F0009A85AB85BC8511C089859A85AB85BC85FE
:100400008D839E83AF83B88789819A81AB81BC81BC
:1004100089879A87AB87BC87D0CFBC01CD012C964A
:100420000FB6F894DEBF0FBECDBFDF91CF91089518
:10043000CF93DF9300D000D0CDB7DEB769837A8346
:100440008B839C8389819A81AB81BC8180930E01CF
:1004500090930F01A0931001B093110180910E01B0
:1004600090910F01A0911001B091110180931F0193
:1004700090932001A0932101B093220100000F90DE
:100480000F900F900F90DF91CF910895CF93DF934E
:10049000CDB7DEB781E890E02BE0FC01208388E84F
:1004A00090E02DE730E0FC01318320838FE690E07F
:1004B00022E0FC01208384E890E0FC01118210829C
:1004C00080910E0190910F01A0911001B091110146
:1004D00080931F0190932001A0932101B0932201EA
:1004E0008FE590E02FE530E0F90120812068FC01E4
:1004F00020830000DF91CF910895CF93DF93CDB794
:10050000DEB781E890E0FC0110820000DF91CF911E
:100510000895CF93DF93CDB7DEB781E080931E01BE
:100520000000DF91CF9108951F920F9200905F001D
:100530000F92112400905B000F922F933F934F93E3
:100540005F936F937F938F939F93AF93BF93EF933B
:10055000FF93CF93DF93CDB7DEB780911F019091CA
:100560002001A0912101B09122010197A109B109B7
:1005700080931F0190932001A0932101B093220149
:1005800080911F0190912001A0912101B091220141
:10059000892B8A2B8B2B91F40E94890280910E016A
:1005A00090910F01A0911001B091110180931F0152
:1005B00090932001A0932101B09322010000DF91CC
:1005C000CF91FF91EF91BF91AF919F918F917F91CB
:1005D0006F915F914F913F912F910F9000925B002F
:1005E0000F9000925F000F901F901895CF93DF93AC
:1005F00000D0CDB7DEB79A83898389819A8100972D
:1006000021F0019709F4ABC0C8C00E94D7008093C5
:10061000570180915701882319F48FE180932401B9
:1006200080915701813319F481E0809324018091F6
:100630005701823319F482E080932401809157019D
:10064000833319F483E0809324018091570184332C
:1006500019F484E08093240180915701853319F4C3
:1006600085E08093240180915701863319F486E058
:100670008093240180915701873319F487E0809398
:10068000240180915701883319F488E08093240174
:1006900080915701893319F489E080932401809176
:1006A00057018A3219F48EE080932401809157011A
:1006B000803311F41092240180915701833219F490
:1006C0008FE080932401809124018F3021F481E018
:1006D00080935F013FC080915F01813041F4809140
:1006E0002401813021F482E080935F0133C0809146
:1006F0005F01823041F480912401823021F483E053
:1007000080935F0127C080915F01833039F483E0DB
:100710008093240184E080935F011CC080915F017D
:10072000843041F480912401843021F485E0809369
:100730005F0110C080915F01853051F480912401E8
:10074000853031F410925F0181E08093250102C071
:1007500010925F0181E090E09A83898321C00E941A
:10076000D700882349F080912301882329F0109233
:1007700023011A82198214C00E94D700882341F4F1
:1007800081E08093230181E090E09A83898308C00F
:1007900081E090E09A83898303C01A821982000065
:1007A00089819A810F900F90DF91CF910895CF9317
:1007B000DF9300D0CDB7DEB79A83898389819A8190
:1007C000892B59F483E290E0FC018081882314F0A6
:1007D000109225011A82198203C01A821982000020
:1007E00089819A810F900F90DF91CF910895CF93D7
:1007F000DF9300D0CDB7DEB79A83898389819A8150
:1008000081309105A9F18230910509F496C1892BB7
:1008100009F0ADC188EC90E0A0E0B0E08093120157
:1008200090931301A0931401B09315011092260127
:1008300010922701109228011092290110922A018A
:1008400080915E01882389F081E090E09A8389831A
:1008500084E090E0A0E0B0E0809312019093130157
:10086000A0931401B093150185C11A82198282C127
:1008700080912601882321F480E48093260106C01C
:1008800080912601803411F4109226018091270175
:1008900090912801A0912901B0912A01843F9140B3
:1008A000A105B10548F584E090E0A0E0B0E08093B8
:1008B000120190931301A0931401B093150120919C
:1008C0002701309128014091290150912A018091FE
:1008D000120190911301A0911401B0911501820FA2
:1008E000931FA41FB51F8093270190932801A09305
:1008F0002901B0932A0102C180912701909128011A
:10090000A0912901B0912A01843F9140A105B10530
:10091000B0F18091270190912801A0912901B09117
:100920002A01883E9340A105B10548F585E090E095
:10093000A0E0B0E08093120190931301A093140102
:10094000B093150120912701309128014091290190
:1009500050912A018091120190911301A0911401EC
:10096000B0911501820F931FA41FB51F809327011B
:1009700090932801A0932901B0932A01BFC08091D0
:10098000270190912801A0912901B0912A01883E68
:100990009340A105B105B0F1809127019091280104
:1009A000A0912901B0912A018C3D9540A105B10586
:1009B00048F584E090E0A0E0B0E0809312019093CD
:1009C0001301A0931401B0931501209127013091D8
:1009D00028014091290150912A01809112019091A2
:1009E0001301A0911401B0911501820F931FA41F50
:1009F000B51F8093270190932801A0932901B093FC
:100A00002A017CC08091270190912801A0912901A1
:100A1000B0912A018C3D9540A105B105B0F18091BE
:100A2000270190912801A0912901B0912A01803DD0
:100A30009740A105B10548F585E090E0A0E0B0E061
:100A40008093120190931301A0931401B0931501A8
:100A500020912701309128014091290150912A01CC
:100A60008091120190911301A0911401B091150190
:100A7000820F931FA41FB51F809327019093280115
:100A8000A0932901B0932A0139C080912701909148
:100A90002801A0912901B0912A01803D9740A1052C
:100AA000B10560F18091270190912801A091290161
:100AB000B0912A01883B9B40A105B105F8F482E082
:100AC00090E0A0E0B0E08093120190931301A09316
:100AD0001401B09315018091270190912801A091F4
:100AE0002901B0912A010196A11DB11D8093270112
:100AF00090932801A0932901B0932A0180912701A6
:100B000090912801A0912901B0912A01883B9B4036
:100B1000A105B10568F010922701109228011092EA
:100B2000290110922A0182E090E09A83898322C0F1
:100B300081E090E09A8389831DC01092260188ECA1
:100B400090E0A0E0B0E08093120190931301A09395
:100B50001401B093150180915E01882319F41A8263
:100B6000198208C082E090E09A83898303C01A82C8
:100B70001982000089819A810F900F90DF91CF91A7
:100B80000895CF93DF9300D0CDB7DEB79A838983E2
:100B900089819A81892B61F485E290E03091250169
:100BA00020912601230FFC0120831A82198203C0A1
:100BB0001A821982000089819A810F900F90DF912B
:100BC000CF9108950F931F93CF93DF93CDB7DEB7E7
:100BD0002D970FB6F894DEBF0FBECDBF84E290E034
:100BE0002FE7FC01208385E290E0FC01108287E280
:100BF00090E020EFFC01208388E290E02FE0FC01F0
:100C0000208381E290E0FC01108280E290E02FEFEF
:100C1000FC01208388E0E6E1F1E0DE011696019018
:100C20000D928A95E1F784E090E09C838B838FEFAF
:100C30008D838D8180932B0182E390E0A0E0B0E072
:100C400080932C0190932D01A0932E01B0932F013E
:100C500080912C0190912D01A0912E01B0912F0136
:100C60008093300190933101A0933201B09333010E
:100C700086EF92E090933501809334018D818093CB
:100C8000360182E390E0A0E0B0E0809337019093DA
:100C90003801A0933901B0933A01809137019091C6
:100CA0003801A0913901B0913A0180933B019093B2
:100CB0003C01A0933D01B0933E0187ED93E09093FA
:100CC000400180933F018D818093410182E090E05B
:100CD000A0E0B0E08093420190934301A0934401CF
:100CE000B09345018091420190914301A09144014C
:100CF000B09145018093460190934701A09348012C
:100D0000B093490187EF93E090934B0180934A01A0
:100D10008D8180934C0181E090E0A0E0B0E0809371
:100D20004D0190934E01A0934F01B09350018091DB
:100D30004D0190914E01A0914F01B09150018093CF
:100D4000510190935201A0935301B093540181EC4F
:100D500095E0909356018093550161E070E080E04A
:100D600090E00E9418020E94460280E290E0FC019E
:100D700080818095807880935E01809112019091AE
:100D80001301A0911401B091150180934201909339
:100D90004301A0934401B09345011A8219829BC07C
:100DA00089819A81880F991F9E012F5F3F4F820F83
:100DB000931F0596FC0180819181FC01258136817C
:100DC0004781508589819A81880F991FBE016F5F85
:100DD0007F4F860F971F0596FC0180819181FC0152
:100DE00081819281A381B481281739074A075B0763
:100DF00009F045C089819A81880F991F9E012F5F54
:100E00003F4F820F931F0596FC010081118189815C
:100E10009A81880F991F9E012F5F3F4F820F931F6A
:100E20000596FC0180819181FC01218532858981B3
:100E30009A81880F991FAE014F5F5F4F840F951FF6
:100E40000596FC0180819181FC018081082E000CB7
:100E5000990BF9010995F801808389819A81880F9E
:100E6000991F9E012F5F3F4F820F931F0596FC0134
:100E700080819181FC0115821682178210868981FA
:100E80009A81880F991F9E012F5F3F4F820F931FFA
:100E90000596FC012081318189819A81880F991FF3
:100EA000AE014F5F5F4F840F951F0596FC01808157
:100EB0009181FC0185819681A781B0850196A11D54
:100EC000B11DF90185839683A783B08789819A81B3
:100ED00001969A83898329813A818B819C81281785
:100EE000390708F45DCF000080911E018823E1F3EB
:100EF00010921E013ACFA1E21A2EAA1BBB1BFD01C4
:100F00000DC0AA1FBB1FEE1FFF1FA217B307E407E8
:100F1000F50720F0A21BB30BE40BF50B661F771F40
:100F2000881F991F1A9469F7609570958095909520
:0E0F30009B01AC01BD01CF010895F894FFCFE5
:100F3E000000000200000000670000000000010039
:0E0F4E000000020000002B01360141014C01A1
:00000001FF
