:100000000C948B000C94A2000C94A2000C94A200FF
:100010000C94A2000C94A2000C94A2000C94A200D8
:100020000C94A2000C94A2000C94A2000C94A200C8
:100030000C94A2000C94A2000C94A2000C94A200B8
:100040000C94A2000C94A2000C94A2000C94A200A8
:100050000C94A2000C94A2000C94A2000C94A20098
:100060000C94A2000C94A2000C94A2000C94A20088
:100070000C94A2000C94A2000C94A2000C94A20078
:100080000C94A2000C94A2000C94A20039029E02CF
:100090009E029E029E029E029E029E029E029E0260
:1000A0009E029E029E029E029E029E029E029E0250
:1000B0009E029E029E029E029E029E029E029E0240
:1000C0009E029E029E029E029E029E029E029E0230
:1000D0009E0298029E029E029E029E029E029E0226
:1000E0008D029E029E029E029E029E0293023F028B
:1000F00045024B02510257025D02630269026F0220
:100100009E029E029E029E029E029E029E02750218
:100110007B028102870211241FBECFEFD0E4DEBF35
:10012000CDBF11E0A0E0B1E0E0E6F5E000E00BBFFC
:1001300002C007900D92AE30B107D9F70E940802B5
:100140000C94AE020C940000CF93DF9300D01F926A
:10015000CDB7DEB789837B836A8389818A3031F4A6
:100160008A819B81BC018DE00E94A40080EC90E01C
:10017000FC018081882F90E080729927892BB1F350
:1001800086EC90E02981FC01208380E090E00F90D4
:100190000F900F90DF91CF910895CF93DF9300D010
:1001A0001F92CDB7DEB789836A834B838B81882307
:1001B00071F08A81282F30E081E090E002C0880F42
:1001C000991F2A95E2F7982F8981892B0EC08A8181
:1001D000282F30E081E090E002C0880F991F2A9517
:1001E000E2F7982F9095898189230F900F900F90B7
:1001F000DF91CF910895CF93DF9300D0CDB7DEB7D5
:1002000089836A838A81282F30E081E090E002C0F0
:10021000880F991F2A95E2F7982F898189230F90DB
:100220000F90DF91CF9108950F931F93CF93DF939A
:10023000CDB7DEB708E210E040E064E08FEF0E9447
:10024000CD00F8018083000086E290E0FC0180810F
:10025000809560E00E94FB00882311F081E3D3C009
:1002600086E290E0FC018081809561E00E94FB00C5
:10027000882311F084E3C7C086E290E0FC0180810E
:10028000809562E00E94FB00882311F087E3BBC0E9
:1002900086E290E0FC018081809563E00E94FB0093
:1002A000882311F08AE2AFC008E210E040E065E088
:1002B0008FEF0E94CD00F8018083000086E290E07D
:1002C000FC018081809560E00E94FB00882311F092
:1002D00082E399C086E290E0FC018081809561E034
:1002E0000E94FB00882311F085E38DC086E290E038
:1002F000FC018081809562E00E94FB00882311F060
:1003000088E381C086E290E0FC018081809563E013
:100310000E94FB00882311F080E375C008E210E022
:1003200040E066E08FEF0E94CD00F801808300007E
:1003300086E290E0FC018081809560E00E94FB00F5
:10034000882311F083E35FC086E290E0FC018081A6
:10035000809561E00E94FB00882311F086E353C082
:1003600086E290E0FC018081809562E00E94FB00C3
:10037000882311F089E347C086E290E0FC01808188
:10038000809563E00E94FB00882311F083E23BC06C
:1003900008E210E040E067E08FEF0E94CD00F80136
:1003A0008083000086E290E0FC018081809560E01F
:1003B0000E94FB00882311F081E425C086E290E0D2
:1003C000FC018081809561E00E94FB00882311F090
:1003D00082E419C086E290E0FC018081809562E0B1
:1003E0000E94FB00882311F083E40DC086E290E0B8
:1003F000FC018081809563E00E94FB00882311F05E
:1004000084E401C080E0DF91CF911F910F910895A6
:10041000CF93DF931F92CDB7DEB784E290E02FEF4A
:10042000FC01208385E290E0FC01108287E290E0ED
:1004300020EFFC01208388E290E02FE0FC01208384
:100440000E94140189838981882F90E0092E000C75
:10045000AA0BBB0B40E050E024E430E0841B950B7A
:100460002817390708F46AC08A5B9F4FFC010C9477
:10047000A50285E290E02FE1FC01208365C085E2C2
:1004800090E021E0FC0120835FC085E290E022E063
:10049000FC01208359C085E290E023E0FC01208329
:1004A00053C085E290E024E0FC0120834DC085E24A
:1004B00090E025E0FC01208347C085E290E026E043
:1004C000FC01208341C085E290E027E0FC0120830D
:1004D0003BC085E290E028E0FC01208335C085E246
:1004E00090E029E0FC0120832FC085E290E02AE023
:1004F000FC01208329C085E290E02BE0FC012083F1
:1005000023C085E290E02CE0FC0120831DC085E241
:1005100090E02DE0FC01208317C085E290E02EE002
:10052000FC01208311C085E290E0FC0110820CC028
:1005300085E290E02FE0FC01208306C085E290E098
:100540002BE1FC01208300007BCFEE0FFF1F002476
:10055000001C0BBE0790F691E02D0994F894FFCF94
:0E0560000000000200000000A40000000000E7
:00000001FF
