:100000000C9446000C9465000C9465000C946500FB
:100010000C9465000C9465000C9465000C946500CC
:100020000C9465000C9465000C9465000C946500BC
:100030000C9465000C9494020C9465000C9465007B
:100040000C9465000C9465000C9465000C9465009C
:100050000C9465000C9465000C9465000C9465008C
:100060000C9465000C9465000C9465000C9465007C
:100070000C9465000C9465000C9465000C9465006C
:100080000C9465000C9465000C94650011241FBE4F
:10009000CFEFD0E4DEBFCDBF11E0A0E0B1E0E6EFEE
:1000A000FBE000E00BBF02C007900D92AC31B1073E
:1000B000D9F721E0ACE1B1E001C01D92AC35B20747
:1000C000E1F70E9440040C94F9050C940000CF93D2
:1000D000DF9300D01F92CDB7DEB789837B836A831D
:1000E00089818A3031F48A819B81BC018DE00E9434
:1000F000670080EC90E0FC018081882F90E08072A6
:100100009927892BB1F386EC90E02981FC012083AB
:1001100080E090E00F900F900F90DF91CF910895C5
:10012000CF93DF9300D01F92CDB7DEB789836A8368
:100130004B838B81882371F08A81282F30E081E006
:1001400090E002C0880F991F2A95E2F7982F8981C5
:10015000892B0EC08A81282F30E081E090E002C018
:10016000880F991F2A95E2F7982F90958981892306
:100170000F900F900F90DF91CF910895CF93DF9361
:1001800000D0CDB7DEB789836A838A81282F30E01B
:1001900081E090E002C0880F991F2A95E2F7982F1E
:1001A000898189230F900F90DF91CF9108950F934C
:1001B0001F93CF93DF93CDB7DEB708E210E040E0A6
:1001C00064E08FEF0E949000F8018083000086E2D7
:1001D00090E0FC018081809560E00E94BE00882351
:1001E00011F081E3D3C086E290E0FC01808180952C
:1001F00061E00E94BE00882311F084E3C7C086E25C
:1002000090E0FC018081809562E00E94BE0088231E
:1002100011F087E3BBC086E290E0FC01808180950D
:1002200063E00E94BE00882311F08AE2AFC008E2BA
:1002300010E040E065E08FEF0E949000F8018083BD
:10024000000086E290E0FC018081809560E00E94E1
:10025000BE00882311F082E399C086E290E0FC01A1
:100260008081809561E00E94BE00882311F085E3C3
:100270008DC086E290E0FC018081809562E00E9462
:10028000BE00882311F088E381C086E290E0FC0183
:100290008081809563E00E94BE00882311F080E396
:1002A00075C008E210E040E066E08FEF0E94900029
:1002B000F8018083000086E290E0FC018081809557
:1002C00060E00E94BE00882311F083E35FC086E2F5
:1002D00090E0FC018081809561E00E94BE0088234F
:1002E00011F086E353C086E290E0FC0180818095A6
:1002F00062E00E94BE00882311F089E347C086E2D5
:1003000090E0FC018081809563E00E94BE0088231C
:1003100011F083E23BC008E210E040E067E08FEFBD
:100320000E949000F8018083000086E290E0FC01CA
:100330008081809560E00E94BE00882311F081E4F6
:1003400025C086E290E0FC018081809561E00E94FA
:10035000BE00882311F082E419C086E290E0FC011F
:100360008081809562E00E94BE00882311F083E4C2
:100370000DC086E290E0FC018081809563E00E94E0
:10038000BE00882311F084E401C080E0DF91CF91AA
:100390001F910F910895CF93DF93CDB7DEB72C97C0
:1003A0000FB6F894DEBF0FBECDBF6D837E838F8303
:1003B000988729873A874B875C878D819E81AF819B
:1003C000B88529853A854B855C85BC01CD010E94A5
:1003D000D705DC01CB0189839A83AB83BC838981F8
:1003E0009A81AB81BC81892B8A2B8B2B29F489853F
:1003F0009A85AB85BC8511C089859A85AB85BC85FE
:100400008D839E83AF83B88789819A81AB81BC81BC
:1004100089879A87AB87BC87D0CFBC01CD012C964A
:100420000FB6F894DEBF0FBECDBFDF91CF91089518
:10043000CF93DF9300D000D0CDB7DEB769837A8346
:100440008B839C8389819A81AB81BC8180930E01CF
:1004500090930F01A0931001B093110180910E01B0
:1004600090910F01A0911001B091110180931D0195
:1004700090931E01A0931F01B093200100000F90E4
:100480000F900F900F90DF91CF910895CF93DF934E
:10049000CDB7DEB781E890E02BE0FC01208388E84F
:1004A00090E02DE730E0FC01318320838FE690E07F
:1004B00022E0FC01208384E890E0FC01118210829C
:1004C00080910E0190910F01A0911001B091110146
:1004D00080931D0190931E01A0931F01B0932001F2
:1004E0008FE590E02FE530E0F90120812068FC01E4
:1004F00020830000DF91CF910895CF93DF93CDB794
:10050000DEB781E890E0FC0110820000DF91CF911E
:100510000895CF93DF93CDB7DEB781E080931C01C0
:100520000000DF91CF9108951F920F9200905F001D
:100530000F92112400905B000F922F933F934F93E3
:100540005F936F937F938F939F93AF93BF93EF933B
:10055000FF93CF93DF93CDB7DEB780911D019091CC
:100560001E01A0911F01B09120010197A109B109BD
:1005700080931D0190931E01A0931F01B093200151
:1005800080911D0190911E01A0911F01B091200149
:10059000892B8A2B8B2B91F40E94890280910E016A
:1005A00090910F01A0911001B091110180931D0154
:1005B00090931E01A0931F01B09320010000DF91D2
:1005C000CF91FF91EF91BF91AF919F918F917F91CB
:1005D0006F915F914F913F912F910F9000925B002F
:1005E0000F9000925F000F901F901895CF93DF93AC
:1005F00000D0CDB7DEB79A83898389819A8100972D
:1006000021F0019709F4ABC0C8C00E94D7008093C5
:10061000510180915101882319F48FE180932201C7
:1006200080915101813319F481E0809322018091FE
:100630005101823319F482E08093220180915101AB
:10064000833319F483E08093220180915101843334
:1006500019F484E08093220180915101853319F4CB
:1006600085E08093220180915101863319F486E060
:100670008093220180915101873319F487E08093A0
:10068000220180915101883319F488E0809322017E
:1006900080915101893319F489E08093220180917E
:1006A00051018A3219F48EE0809322018091510128
:1006B000803311F41092220180915101833219F498
:1006C0008FE080932201809122018F3021F481E01C
:1006D000809359013FC080915901813041F480914C
:1006E0002201813021F482E08093590133C080914E
:1006F0005901823041F480912201823021F483E05B
:100700008093590127C080915901833039F483E0E7
:100710008093220184E0809359011CC0809159018B
:10072000843041F480912201843021F485E080936B
:10073000590110C080915901853051F480912201F6
:10074000853031F41092590181E08093230102C079
:100750001092590181E090E09A83898321C00E9420
:10076000D700882349F080912101882329F0109235
:1007700021011A82198214C00E94D700882341F4F3
:1007800081E08093210181E090E09A83898308C011
:1007900081E090E09A83898303C01A821982000065
:1007A00089819A810F900F90DF91CF910895CF9317
:1007B000DF9300D0CDB7DEB79A83898389819A8190
:1007C000892B59F483E290E0FC018081882314F0A6
:1007D000109223011A82198203C01A821982000022
:1007E00089819A810F900F90DF91CF910895CF93D7
:1007F000DF9300D0CDB7DEB79A83898389819A8150
:10080000009719F0019769F010C080915801882372
:1008100029F081E090E09A8389830AC01A821982C4
:1008200007C082E08093240103C01A82198200006D
:1008300089819A810F900F90DF91CF910895CF9386
:10084000DF9300D0CDB7DEB79A83898389819A81FF
:10085000892B61F485E290E03091230120912401FD
:10086000230FFC0120831A82198203C01A82198285
:10087000000089819A810F900F90DF91CF910895A8
:100880000F931F93CF93DF93CDB7DEB72D970FB69E
:10089000F894DEBF0FBECDBF84E290E02FE7FC01ED
:1008A000208385E290E0FC01108287E290E020EF57
:1008B000FC01208388E290E02FE0FC01208381E2AC
:1008C00090E0FC01108280E290E02FEFFC01208399
:1008D00088E0E3E1F1E0DE01169601900D928A9541
:1008E000E1F784E090E09C838B838FEF8D838D8193
:1008F0008093250182E390E0A0E0B0E080932601A0
:1009000090932701A0932801B0932901809126019B
:1009100090912701A0912801B091290180932A018B
:1009200090932B01A0932C01B0932D0186EF92E0C0
:1009300090932F0180932E018D818093300182E36B
:1009400090E0A0E0B0E08093310190933201A09359
:100950003301B09334018091310190913201A09123
:100960003301B09134018093350190933601A09307
:100970003701B093380187ED93E090933A0180936B
:1009800039018D8180933B0188EC90E0A0E0B0E0DC
:1009900080933C0190933D01A0933E01B0933F01B1
:1009A00080913C0190913D01A0913E01B0913F01A9
:1009B0008093400190934101A0934201B093430181
:1009C00087EF93E090934501809344018D8180935C
:1009D000460182E390E0A0E0B0E08093470190936D
:1009E0004801A0934901B0934A0180914701909139
:1009F0004801A0914901B0914A0180934B01909325
:100A00004C01A0934D01B0934E018FE194E090937F
:100A1000500180934F0161E070E080E090E00E941F
:100A200018020E94460280E290E0FC0180818095DD
:100A300080788093580180911201882F90E0A0E087
:100A4000B0E080933C0190933D01A0933E01B093B0
:100A50003F011A8219829BC089819A81880F991F50
:100A60009E012F5F3F4F820F931F0596FC018081EF
:100A70009181FC01258136814781508589819A8148
:100A8000880F991FBE016F5F7F4F860F971F0596D6
:100A9000FC0180819181FC0181819281A381B481DB
:100AA000281739074A075B0709F045C089819A81F1
:100AB000880F991F9E012F5F3F4F820F931F05964E
:100AC000FC010081118189819A81880F991F9E0103
:100AD0002F5F3F4F820F931F0596FC01808191810C
:100AE000FC012185328589819A81880F991FAE0189
:100AF0004F5F5F4F840F951F0596FC0180819181A8
:100B0000FC018081082E000C990BF9010995F80170
:100B1000808389819A81880F991F9E012F5F3F4FA3
:100B2000820F931F0596FC0180819181FC01158243
:100B300016821782108689819A81880F991F9E01DB
:100B40002F5F3F4F820F931F0596FC01208131815B
:100B500089819A81880F991FAE014F5F5F4F840F83
:100B6000951F0596FC0180819181FC01858196810C
:100B7000A781B0850196A11DB11DF90185839683DA
:100B8000A783B08789819A8101969A838983298175
:100B90003A818B819C812817390708F45DCF0000CA
:100BA00080911C018823E1F310921C013CCFA1E24B
:100BB0001A2EAA1BBB1BFD010DC0AA1FBB1FEE1FD7
:100BC000FF1FA217B307E407F50720F0A21BB30B22
:100BD000E40BF50B661F771F881F991F1A9469F79E
:100BE00060957095809590959B01AC01BD01CF01FA
:060BF0000895F894FFCF08
:100BF6000000000200000000670000000000010085
:0C0C06000000C8250130013B0146010040
:00000001FF
