:100000000C9446000C9465000C9465000C946500FB
:100010000C9465000C9465000C9465000C946500CC
:100020000C9465000C9465000C9465000C946500BC
:100030000C9465000C9494020C9465000C9465007B
:100040000C9465000C9465000C9465000C9465009C
:100050000C9465000C9465000C9465000C9465008C
:100060000C9465000C9465000C9465000C9465007C
:100070000C9465000C9465000C9465000C9465006C
:100080000C9465000C9465000C94650011241FBE4F
:10009000CFEFD0E4DEBFCDBF11E0A0E0B1E0ECEEE9
:1000A000FCE000E00BBF02C007900D92AC31B1073D
:1000B000D9F721E0ACE1B1E001C01D92A136B20751
:1000C000E1F70E947D040C9474060C940000CF9319
:1000D000DF9300D01F92CDB7DEB789837B836A831D
:1000E00089818A3031F48A819B81BC018DE00E9434
:1000F000670080EC90E0FC018081882F90E08072A6
:100100009927892BB1F386EC90E02981FC012083AB
:1001100080E090E00F900F900F90DF91CF910895C5
:10012000CF93DF9300D01F92CDB7DEB789836A8368
:100130004B838B81882371F08A81282F30E081E006
:1001400090E002C0880F991F2A95E2F7982F8981C5
:10015000892B0EC08A81282F30E081E090E002C018
:10016000880F991F2A95E2F7982F90958981892306
:100170000F900F900F90DF91CF910895CF93DF9361
:1001800000D0CDB7DEB789836A838A81282F30E01B
:1001900081E090E002C0880F991F2A95E2F7982F1E
:1001A000898189230F900F90DF91CF9108950F934C
:1001B0001F93CF93DF93CDB7DEB708E210E040E0A6
:1001C00064E08FEF0E949000F8018083000086E2D7
:1001D00090E0FC018081809560E00E94BE00882351
:1001E00011F081E3D3C086E290E0FC01808180952C
:1001F00061E00E94BE00882311F084E3C7C086E25C
:1002000090E0FC018081809562E00E94BE0088231E
:1002100011F087E3BBC086E290E0FC01808180950D
:1002200063E00E94BE00882311F08AE2AFC008E2BA
:1002300010E040E065E08FEF0E949000F8018083BD
:10024000000086E290E0FC018081809560E00E94E1
:10025000BE00882311F082E399C086E290E0FC01A1
:100260008081809561E00E94BE00882311F085E3C3
:100270008DC086E290E0FC018081809562E00E9462
:10028000BE00882311F088E381C086E290E0FC0183
:100290008081809563E00E94BE00882311F080E396
:1002A00075C008E210E040E066E08FEF0E94900029
:1002B000F8018083000086E290E0FC018081809557
:1002C00060E00E94BE00882311F083E35FC086E2F5
:1002D00090E0FC018081809561E00E94BE0088234F
:1002E00011F086E353C086E290E0FC0180818095A6
:1002F00062E00E94BE00882311F089E347C086E2D5
:1003000090E0FC018081809563E00E94BE0088231C
:1003100011F083E23BC008E210E040E067E08FEFBD
:100320000E949000F8018083000086E290E0FC01CA
:100330008081809560E00E94BE00882311F081E4F6
:1003400025C086E290E0FC018081809561E00E94FA
:10035000BE00882311F082E419C086E290E0FC011F
:100360008081809562E00E94BE00882311F083E4C2
:100370000DC086E290E0FC018081809563E00E94E0
:10038000BE00882311F084E401C080E0DF91CF91AA
:100390001F910F910895CF93DF93CDB7DEB72C97C0
:1003A0000FB6F894DEBF0FBECDBF6D837E838F8303
:1003B000988729873A874B875C878D819E81AF819B
:1003C000B88529853A854B855C85BC01CD010E94A5
:1003D0005206DC01CB0189839A83AB83BC8389817C
:1003E0009A81AB81BC81892B8A2B8B2B29F489853F
:1003F0009A85AB85BC8511C089859A85AB85BC85FE
:100400008D839E83AF83B88789819A81AB81BC81BC
:1004100089879A87AB87BC87D0CFBC01CD012C964A
:100420000FB6F894DEBF0FBECDBFDF91CF91089518
:10043000CF93DF9300D000D0CDB7DEB769837A8346
:100440008B839C8389819A81AB81BC8180930E01CF
:1004500090930F01A0931001B093110180910E01B0
:1004600090910F01A0911001B091110180931D0195
:1004700090931E01A0931F01B093200100000F90E4
:100480000F900F900F90DF91CF910895CF93DF934E
:10049000CDB7DEB781E890E02BE0FC01208388E84F
:1004A00090E02DE730E0FC01318320838FE690E07F
:1004B00022E0FC01208384E890E0FC01118210829C
:1004C00080910E0190910F01A0911001B091110146
:1004D00080931D0190931E01A0931F01B0932001F2
:1004E0008FE590E02FE530E0F90120812068FC01E4
:1004F00020830000DF91CF910895CF93DF93CDB794
:10050000DEB781E890E0FC0110820000DF91CF911E
:100510000895CF93DF93CDB7DEB781E080931C01C0
:100520000000DF91CF9108951F920F9200905F001D
:100530000F92112400905B000F922F933F934F93E3
:100540005F936F937F938F939F93AF93BF93EF933B
:10055000FF93CF93DF93CDB7DEB780911D019091CC
:100560001E01A0911F01B09120010197A109B109BD
:1005700080931D0190931E01A0931F01B093200151
:1005800080911D0190911E01A0911F01B091200149
:10059000892B8A2B8B2B91F40E94890280910E016A
:1005A00090910F01A0911001B091110180931D0154
:1005B00090931E01A0931F01B09320010000DF91D2
:1005C000CF91FF91EF91BF91AF919F918F917F91CB
:1005D0006F915F914F913F912F910F9000925B002F
:1005E0000F9000925F000F901F901895CF93DF93AC
:1005F00000D0CDB7DEB79A83898389819A8100972D
:1006000021F0019709F4ADC0CAC00E94D7008093C1
:10061000520180915201882319F48FE180932201C5
:1006200080915201813319F481E0809322018091FD
:100630005201823319F482E08093220180915201A9
:10064000833319F483E08093220180915201843333
:1006500019F484E08093220180915201853319F4CA
:1006600085E08093220180915201863319F486E05F
:100670008093220180915201873319F487E080939F
:10068000220180915201883319F488E0809322017D
:1006900080915201893319F489E08093220180917D
:1006A00052018A3219F48EE0809322018091520126
:1006B000803311F41092220180915201833219F497
:1006C0008FE080932201809122018F3021F481E01C
:1006D00080935E0141C080915E01813041F4809140
:1006E0002201813021F482E080935E0135C0809147
:1006F0005E01823041F480912201823021F483E056
:1007000080935E0129C080915E01833039F483E0DB
:100710008093220184E080935E011EC080915E017F
:10072000843041F480912201843021F485E080936B
:100730005E0112C080915E01853051F480912201EA
:10074000853031F410925E0181E08093230104C072
:1007500010925E011092230181E090E09A838983D8
:1007600021C00E94D700882349F08091210188236D
:1007700029F0109221011A82198214C00E94D70018
:10078000882341F481E08093210181E090E09A8305
:10079000898308C081E090E09A83898303C01A822C
:1007A0001982000089819A810F900F90DF91CF917B
:1007B0000895CF93DF9300D0CDB7DEB79A838983B6
:1007C00089819A81892B89F483E290E0FC01808100
:1007D000881F8827881F882F90E0029619F481E0EF
:1007E000809312011A82198203C01A8219820000B2
:1007F00089819A810F900F90DF91CF910895CF93C7
:10080000DF9300D0CDB7DEB79A83898389819A813F
:10081000009719F0019791F029C01092250180915D
:100820005D01882341F081E090E09A83898383E031
:10083000809313011EC01A8219821BC0809125016A
:10084000882331F481E0809325011092240109C0AE
:1008500080912501813029F41092250180E4809354
:10086000240181E090E09A83898303C01A8219826F
:10087000000089819A810F900F90DF91CF910895A8
:10088000CF93DF9300D01F92CDB7DEB79B838A83CF
:100890008A819B81892B69F480912301882319F037
:1008A00081E0898309C080911201882329F019828F
:1008B00003C01B821A8201C0000085E290E03091E3
:1008C00024012981320F20915D01220F220F432F35
:1008D000420F23E230E0F9012081221F2227221F4C
:1008E0002095220F240FFC0120838A819B810F9089
:1008F0000F900F90DF91CF9108950F931F93CF9397
:10090000DF93CDB7DEB763970FB6F894DEBF0FBEA7
:10091000CDBF84E290E02FE7FC01208385E290E0E8
:1009200020E8FC01208387E290E020EFFC01208397
:1009300088E290E02FE0FC01208381E290E0FC015E
:10094000108280E290E02FEFFC01208388E0E4E158
:10095000F1E0DE011C9601900D928A95E1F784E0AA
:1009600090E09A8789878FEF8B878B85809326010C
:1009700082E390E0A0E0B0E080932701909328010B
:10098000A0932901B0932A01809127019091280119
:10099000A0912901B0912A0180932B0190932C0101
:1009A000A0932D01B0932E0186EF92E09093300139
:1009B00080932F018B858093310182E390E0A0E04A
:1009C000B0E08093320190933301A0933401B0934F
:1009D00035018091320190913301A0913401B091A1
:1009E00035018093360190933701A0933801B0937D
:1009F000390189ED93E090933B0180933A018B8517
:100A000080933C0182E090E0A0E0B0E080933D0163
:100A100090933E01A0933F01B093400180913D012E
:100A200090913E01A0913F01B0914001809341011E
:100A300090934201A0934301B09344018FEF93E060
:100A400090934601809345018B858093470182E313
:100A500090E0A0E0B0E08093480190934901A0931A
:100A60004A01B0934B0180913D0190913E01A091CC
:100A70003F01B091400180934C0190934D01A093B0
:100A80004E01B0934F0180E494E090935101809324
:100A900050018C859D85FC0181819281A381B48167
:100AA00089839A83AB83BC8381E090E09E838D83AE
:100AB00025C08D819E81880F991F9E012F5F3F4F1A
:100AC000820F931F0B96FC0180819181FC01218193
:100AD00032814381548189819A81AB81BC81BC017F
:100AE000CD010E94CB01DC01CB0189839A83AB83CA
:100AF000BC838D819E8101969E838D832D813E8155
:100B000089859A8528173907A0F261E070E080E0B6
:100B100090E00E9418020E94460280E290E0FC01F0
:100B20008081881F8827881F80935D018091130131
:100B3000882F90E0A0E0B0E080933D0190933E01CB
:100B4000A0933F01B093400118861F829BC08F8104
:100B50009885880F991F9E012F5F3F4F820F931F2B
:100B60000B96FC0180819181FC01258136814781B2
:100B700050858F819885880F991FBE016F5F7F4FC9
:100B8000860F971F0B96FC0180819181FC0181816A
:100B90009281A381B481281739074A075B0709F0BE
:100BA00045C08F819885880F991F9E012F5F3F4F09
:100BB000820F931F0B96FC01008111818F81988514
:100BC000880F991F9E012F5F3F4F820F931F0B9637
:100BD000FC0180819181FC01218532858F8198857E
:100BE000880F991FAE014F5F5F4F840F951F0B96C3
:100BF000FC0180819181FC018081082E000C990B01
:100C0000F9010995F80180838F819885880F991FD4
:100C10009E012F5F3F4F820F931F0B96FC01808137
:100C20009181FC0115821682178210868F8198852A
:100C3000880F991F9E012F5F3F4F820F931F0B96C6
:100C4000FC01208131818F819885880F991FAE0129
:100C50004F5F5F4F840F951F0B96FC018081918140
:100C6000FC0185819681A781B0850196A11DB11DEA
:100C7000F90185839683A783B0878F819885019634
:100C800098878F832F81388589859A85281739071A
:100C900008F45DCF000080911C018823E1F31092DD
:100CA0001C013BCFA1E21A2EAA1BBB1BFD010DC0EC
:100CB000AA1FBB1FEE1FFF1FA217B307E407F5070C
:100CC00020F0A21BB30BE40BF50B661F771F881FE8
:100CD000991F1A9469F760957095809590959B017E
:0C0CE000AC01BD01CF010895F894FFCFD6
:100CEC00000000020000000067000000000001008E
:0C0CFC00000001C8260131013C01470145
:00000001FF
