:100000000C948B000C94AA000C94AA000C94AA00E7
:100010000C94AA000C94AA000C94AA000C94AA00B8
:100020000C94AA000C94AA000C94AA000C94AA00A8
:100030000C94AA000C94D9020C94AA000C94AA0067
:100040000C94AA000C94AA000C94AA000C94AA0088
:100050000C94AA000C94AA000C94AA000C94AA0078
:100060000C94AA000C94AA000C94AA000C94AA0068
:100070000C94AA000C94AA000C94AA000C94AA0058
:100080000C94AA000C94AA000C94AA006403A70381
:10009000A703A703A703A703A703A703A703A70310
:1000A000A703A703A703A703A703A703A703A70300
:1000B000A703A703A703A703A703A703A703A703F0
:1000C000A703A703A703A703A703A703A703A703E0
:1000D000A703A303A703A703A703A703A703A703D4
:1000E0009C03A703A703A703A703A703A003680311
:1000F0006C037003740378037C0380038403880318
:10010000A703A703A703A703A703A703A7038C03BA
:1001100090039403980311241FBECFEFD0E4DEBFF9
:10012000CDBF11E0A0E0B1E0E4EAFBE000E00BBFEE
:1001300002C007900D92A831B107D9F721E0A8E1DC
:10014000B1E001C01D92A834B207E1F70E940F048C
:100150000C94D0050C940000CF93DF9300D01F9235
:10016000CDB7DEB789837B836A8389818A3031F496
:100170008A819B81BC018DE00E94AC0080EC90E004
:10018000FC018081882F90E080729927892BB1F340
:1001900086EC90E02981FC01208380E090E00F90C4
:1001A0000F900F90DF91CF910895CF93DF9300D000
:1001B0001F92CDB7DEB789836A834B838B818823F7
:1001C00071F08A81282F30E081E090E002C0880F32
:1001D000991F2A95E2F7982F8981892B0EC08A8171
:1001E000282F30E081E090E002C0880F991F2A9507
:1001F000E2F7982F9095898189230F900F900F90A7
:10020000DF91CF910895CF93DF9300D0CDB7DEB7C4
:1002100089836A838A81282F30E081E090E002C0E0
:10022000880F991F2A95E2F7982F898189230F90CB
:100230000F90DF91CF9108950F931F93CF93DF938A
:10024000CDB7DEB708E210E040E064E08FEF0E9437
:10025000D500F8018083000086E290E0FC018081F7
:10026000809560E00E940301882311F081E3D3C0F0
:1002700086E290E0FC018081809561E00E940301AC
:10028000882311F084E3C7C086E290E0FC018081FE
:10029000809562E00E940301882311F087E3BBC0D0
:1002A00086E290E0FC018081809563E00E9403017A
:1002B000882311F08AE2AFC008E210E040E065E078
:1002C0008FEF0E94D500F8018083000086E290E065
:1002D000FC018081809560E00E940301882311F079
:1002E00082E399C086E290E0FC018081809561E024
:1002F0000E940301882311F085E38DC086E290E01F
:10030000FC018081809562E00E940301882311F046
:1003100088E381C086E290E0FC018081809563E003
:100320000E940301882311F080E375C008E210E009
:1003300040E066E08FEF0E94D500F8018083000066
:1003400086E290E0FC018081809560E00E940301DC
:10035000882311F083E35FC086E290E0FC01808196
:10036000809561E00E940301882311F086E353C069
:1003700086E290E0FC018081809562E00E940301AA
:10038000882311F089E347C086E290E0FC01808178
:10039000809563E00E940301882311F083E23BC053
:1003A00008E210E040E067E08FEF0E94D500F8011E
:1003B0008083000086E290E0FC018081809560E00F
:1003C0000E940301882311F081E425C086E290E0B9
:1003D000FC018081809561E00E940301882311F077
:1003E00082E419C086E290E0FC018081809562E0A1
:1003F0000E940301882311F083E40DC086E290E09F
:10040000FC018081809563E00E940301882311F044
:1004100084E401C080E0DF91CF911F910F91089596
:10042000CF93DF93CDB7DEB72C970FB6F894DEBF2E
:100430000FBECDBF6D837E838F83988729873A87D0
:100440004B875C878D819E81AF81B88529853A85F0
:100450004B855C85BC01CD010E94A505DC01CB016B
:1004600089839A83AB83BC8389819A81AB81BC8168
:10047000892B8A2B8B2B29F489859A85AB85BC85A2
:1004800011C089859A85AB85BC858D839E83AF839A
:10049000B88789819A81AB81BC8189879A87AB872C
:1004A000BC87D0CFBC01CD012C960FB6F894DEBF2F
:1004B0000FBECDBFDF91CF910895CF93DF9300D0D2
:1004C00000D0CDB7DEB769837A838B839C83898123
:1004D0009A81AB81BC8180930E0190930F01A09310
:1004E0001001B093110180910E0190910F01A09124
:1004F0001001B09111018093190190931A01A093FA
:100500001B01B0931C0100000F900F900F900F90F3
:10051000DF91CF910895CF93DF93CDB7DEB781E818
:1005200090E02BE0FC01208388E890E02DE730E0AC
:10053000FC01318320838FE690E022E0FC012083E0
:1005400084E890E0FC011182108280910E0190916C
:100550000F01A0911001B0911101809319019093A6
:100560001A01A0931B01B0931C018FE590E02FE5C9
:1005700030E0F90120812068FC0120830000DF9138
:10058000CF910895CF93DF93CDB7DEB781E890E0A8
:10059000FC0110820000DF91CF910895CF93DF938B
:1005A000CDB7DEB781E0809318010000DF91CF91D5
:1005B00008951F920F9200905F000F9211240090F7
:1005C0005B000F922F933F934F935F936F937F93B3
:1005D0008F939F93AF93BF93EF93FF93CF93DF934B
:1005E000CDB7DEB78091190190911A01A0911B013E
:1005F000B0911C010197A109B10980931901909351
:100600001A01A0931B01B0931C01809119019091D4
:100610001A01A0911B01B0911C01892B8A2B8B2BF5
:1006200091F40E94CE0280910E0190910F01A09151
:100630001001B09111018093190190931A01A093B8
:100640001B01B0931C010000DF91CF91FF91EF914E
:10065000BF91AF919F918F917F916F915F914F91DA
:100660003F912F910F9000925B000F9000925F00DE
:100670000F901F901895CF93DF9300D0CDB7DEB7C2
:100680009A8389838091460190914701892B09F0D3
:1006900069C00E941C0180933E0180913E01882F19
:1006A00090E0092E000CAA0BBB0B40E050E024E4C4
:1006B00030E0841B950B2817390708F448C08A5B83
:1006C0009F4FFC010C94C7058FE18093440145C006
:1006D00081E08093440141C082E0809344013DC0A9
:1006E00083E08093440139C084E08093440135C0A5
:1006F00085E08093440131C086E0809344012DC0A1
:1007000087E08093440129C088E08093440125C09C
:1007100089E08093440121C08AE0809344011DC098
:100720008BE08093440119C08CE08093440115C094
:100730008DE08093440111C08EE0809344010DC090
:10074000109244010AC08FE08093440106C085E204
:1007500090E02BE1FC0120830000109247011092F1
:10076000460105C010924701109246010000809199
:100770004601909147010F900F90DF91CF9108951E
:10078000CF93DF9300D0CDB7DEB79A838983898179
:100790009A81892B79F40E941C01809345018091F4
:1007A0003E01882319F41092410107C081E0809333
:1007B000410103C01A821982000089819A810F9039
:1007C0000F90DF91CF910895CF93DF9300D01F92C8
:1007D000CDB7DEB79B838A838A819B81892B79F48D
:1007E00080914101882F90E09695982F88279795C2
:1007F0008795982F80914401892B898303C01B82A0
:100800001A82000085E290E02981FC0120838A8120
:100810009B810F900F900F90DF91CF9108950F93D0
:100820001F93CF93DF93CDB7DEB761970FB6F894E0
:10083000DEBF0FBECDBF84E290E02FEFFC0120832E
:1008400085E290E0FC01108287E290E020EFFC015D
:10085000208388E290E02FE0FC01208386E0E2E143
:10086000F1E0DE011C9601900D928A95E1F783E09C
:1008700090E09A8789878FEF8B878B8580931D0106
:1008800082E390E0A0E0B0E080931E0190931F010E
:10089000A0932001B093210180911E0190911F012E
:1008A000A0912001B0912101809322019093230116
:1008B000A0932401B09325018BE393E0909327014B
:1008C000809326018B858093280182E390E0A0E04D
:1008D000B0E08093290190932A01A0932B01B0935B
:1008E0002C018091290190912A01A0912B01B091B6
:1008F0002C0180932D0190932E01A0932F01B09392
:10090000300180EC93E090933201809331018B852C
:100910008093330182E390E0A0E0B0E08093340163
:1009200090933501A0933601B09337018091340143
:1009300090913501A0913601B09137018093380133
:1009400090933901A0933A01B0933B0184EE93E078
:1009500090933D0180933C018C859D85FC018181B4
:100960009281A381B48189839A83AB83BC8381E024
:1009700090E09E838D8325C08D819E81880F991F75
:100980009E012F5F3F4F820F931F0B96FC018081CA
:100990009181FC01218132814381548189819A8135
:1009A000AB81BC81BC01CD010E941002DC01CB01F6
:1009B00089839A83AB83BC838D819E8101969E83BC
:1009C0008D832D813E8189859A8528173907A0F26C
:1009D00089819A81AB81BC81BC01CD010E945D02FD
:1009E0000E948B0218861F82A0C08F819885880F75
:1009F000991F9E012F5F3F4F820F931F0B96FC01A3
:100A000080819181FC0125813681478150858F81CC
:100A10009885880F991FBE016F5F7F4F860F971FC4
:100A20000B96FC0180819181FC0181819281A381DF
:100A3000B481281739074A075B0709F045C08F8141
:100A40009885880F991F9E012F5F3F4F820F931F3C
:100A50000B96FC01008111818F819885880F991F69
:100A60009E012F5F3F4F820F931F0B96FC018081E9
:100A70009181FC01218532858F819885880F991F8E
:100A8000AE014F5F5F4F840F951F0B96FC01808175
:100A90009181FC018081082E000C990BF9010995C8
:100AA000F80180838F819885880F991F9E012F5FA1
:100AB0003F4F820F931F0B96FC0180819181FC01B7
:100AC00015821682178210868F819885880F991F4C
:100AD0009E012F5F3F4F820F931F0B96FC01608199
:100AE00071818F819885880F991F9E012F5F3F4FDD
:100AF000820F931F0B96FC0180819181FC0125815F
:100B000036814781508589819A81AB81BC81820F72
:100B1000931FA41FB51FFB0185839683A783B0870E
:100B20008F819885019698878F832F813885898555
:100B30009A852817390708F458CF000080911801CA
:100B40008823E1F3109218014DCFA1E21A2EAA1BBF
:100B5000BB1BFD010DC0AA1FBB1FEE1FFF1FA2176D
:100B6000B307E407F50720F0A21BB30BE40BF50B6A
:100B7000661F771F881F991F1A9469F760957095F3
:100B8000809590959B01AC01BD01CF010895EE0FBA
:100B9000FF1F0024001C0BBE0790F691E02D099466
:040BA000F894FFCFF7
:100BA4000000000200000000AC0000000000010092
:080BB40000001D0128013301BE
:00000001FF
