:100000000C948B000C94AA000C94AA000C94AA00E7
:100010000C94AA000C94AA000C94AA000C94AA00B8
:100020000C94AA000C94AA000C94AA000C94AA00A8
:100030000C94AA000C94D9020C94AA000C94AA0067
:100040000C94AA000C94AA000C94AA000C94AA0088
:100050000C94AA000C94AA000C94AA000C94AA0078
:100060000C94AA000C94AA000C94AA000C94AA0068
:100070000C94AA000C94AA000C94AA000C94AA0058
:100080000C94AA000C94AA000C94AA006203A50385
:10009000A503A503A503A503A503A503A503A50320
:1000A000A503A503A503A503A503A503A503A50310
:1000B000A503A503A503A503A503A503A503A50300
:1000C000A503A503A503A503A503A503A503A503F0
:1000D000A503A103A503A503A503A503A503A503E4
:1000E0009A03A503A503A503A503A5039E03660321
:1000F0006A036E03720376037A037E038203860328
:10010000A503A503A503A503A503A503A5038A03CA
:100110008E039203960311241FBECFEFD0E4DEBFFF
:10012000CDBF11E0A0E0B1E0E6ECFBE000E00BBFEA
:1001300002C007900D92A831B107D9F721E0A8E1DC
:10014000B1E001C01D92A934B207E1F70E9420047A
:100150000C94E1050C940000CF93DF9300D01F9224
:10016000CDB7DEB789837B836A8389818A3031F496
:100170008A819B81BC018DE00E94AC0080EC90E004
:10018000FC018081882F90E080729927892BB1F340
:1001900086EC90E02981FC01208380E090E00F90C4
:1001A0000F900F90DF91CF910895CF93DF9300D000
:1001B0001F92CDB7DEB789836A834B838B818823F7
:1001C00071F08A81282F30E081E090E002C0880F32
:1001D000991F2A95E2F7982F8981892B0EC08A8171
:1001E000282F30E081E090E002C0880F991F2A9507
:1001F000E2F7982F9095898189230F900F900F90A7
:10020000DF91CF910895CF93DF9300D0CDB7DEB7C4
:1002100089836A838A81282F30E081E090E002C0E0
:10022000880F991F2A95E2F7982F898189230F90CB
:100230000F90DF91CF9108950F931F93CF93DF938A
:10024000CDB7DEB708E210E040E064E08FEF0E9437
:10025000D500F8018083000086E290E0FC018081F7
:10026000809560E00E940301882311F081E3D3C0F0
:1002700086E290E0FC018081809561E00E940301AC
:10028000882311F084E3C7C086E290E0FC018081FE
:10029000809562E00E940301882311F087E3BBC0D0
:1002A00086E290E0FC018081809563E00E9403017A
:1002B000882311F08AE2AFC008E210E040E065E078
:1002C0008FEF0E94D500F8018083000086E290E065
:1002D000FC018081809560E00E940301882311F079
:1002E00082E399C086E290E0FC018081809561E024
:1002F0000E940301882311F085E38DC086E290E01F
:10030000FC018081809562E00E940301882311F046
:1003100088E381C086E290E0FC018081809563E003
:100320000E940301882311F080E375C008E210E009
:1003300040E066E08FEF0E94D500F8018083000066
:1003400086E290E0FC018081809560E00E940301DC
:10035000882311F083E35FC086E290E0FC01808196
:10036000809561E00E940301882311F086E353C069
:1003700086E290E0FC018081809562E00E940301AA
:10038000882311F089E347C086E290E0FC01808178
:10039000809563E00E940301882311F083E23BC053
:1003A00008E210E040E067E08FEF0E94D500F8011E
:1003B0008083000086E290E0FC018081809560E00F
:1003C0000E940301882311F081E425C086E290E0B9
:1003D000FC018081809561E00E940301882311F077
:1003E00082E419C086E290E0FC018081809562E0A1
:1003F0000E940301882311F083E40DC086E290E09F
:10040000FC018081809563E00E940301882311F044
:1004100084E401C080E0DF91CF911F910F91089596
:10042000CF93DF93CDB7DEB72C970FB6F894DEBF2E
:100430000FBECDBF6D837E838F83988729873A87D0
:100440004B875C878D819E81AF81B88529853A85F0
:100450004B855C85BC01CD010E94B605DC01CB015A
:1004600089839A83AB83BC8389819A81AB81BC8168
:10047000892B8A2B8B2B29F489859A85AB85BC85A2
:1004800011C089859A85AB85BC858D839E83AF839A
:10049000B88789819A81AB81BC8189879A87AB872C
:1004A000BC87D0CFBC01CD012C960FB6F894DEBF2F
:1004B0000FBECDBFDF91CF910895CF93DF9300D0D2
:1004C00000D0CDB7DEB769837A838B839C83898123
:1004D0009A81AB81BC8180930E0190930F01A09310
:1004E0001001B093110180910E0190910F01A09124
:1004F0001001B09111018093190190931A01A093FA
:100500001B01B0931C0100000F900F900F900F90F3
:10051000DF91CF910895CF93DF93CDB7DEB781E818
:1005200090E02BE0FC01208388E890E02DE730E0AC
:10053000FC01318320838FE690E022E0FC012083E0
:1005400084E890E0FC011182108280910E0190916C
:100550000F01A0911001B0911101809319019093A6
:100560001A01A0931B01B0931C018FE590E02FE5C9
:1005700030E0F90120812068FC0120830000DF9138
:10058000CF910895CF93DF93CDB7DEB781E890E0A8
:10059000FC0110820000DF91CF910895CF93DF938B
:1005A000CDB7DEB781E0809318010000DF91CF91D5
:1005B00008951F920F9200905F000F9211240090F7
:1005C0005B000F922F933F934F935F936F937F93B3
:1005D0008F939F93AF93BF93EF93FF93CF93DF934B
:1005E000CDB7DEB78091190190911A01A0911B013E
:1005F000B0911C010197A109B10980931901909351
:100600001A01A0931B01B0931C01809119019091D4
:100610001A01A0911B01B0911C01892B8A2B8B2BF5
:1006200091F40E94CE0280910E0190910F01A09151
:100630001001B09111018093190190931A01A093B8
:100640001B01B0931C010000DF91CF91FF91EF914E
:10065000BF91AF919F918F917F916F915F914F91DA
:100660003F912F910F9000925B000F9000925F00DE
:100670000F901F901895CF93DF9300D0CDB7DEB7C2
:100680009A83898389819A81892B09F07FC00E948E
:100690001C0180933F0180913F01882F90E0092E3B
:1006A000000CAA0BBB0B40E050E024E430E0841BBC
:1006B000950B2817390708F448C08A5B9F4FFC0147
:1006C0000C94D8058FE18093450143C081E080936D
:1006D00045013FC082E0809345013BC083E08093A9
:1006E000450137C084E08093450133C085E08093A5
:1006F00045012FC086E0809345012BC087E08093A1
:10070000450127C088E08093450123C089E080939C
:1007100045011FC08AE0809345011BC08BE0809398
:10072000450117C08CE08093450113C08DE0809394
:1007300045010FC08EE0809345010BC0109245012A
:1007400008C08FE08093450104C08BE18093450190
:100750000000809145018F3021F481E080931D01DC
:1007600002C010921D0180911D01813041F48091E1
:100770004501813021F482E080931D0102C0109276
:100780001D0181E090E09A83898303C01A82198257
:10079000000089819A810F900F90DF91CF91089589
:1007A000CF93DF9300D0CDB7DEB79A838983898159
:1007B0009A81892B79F40E941C01809346018091D3
:1007C0003F01882319F41092420107C081E0809311
:1007D000420103C01A821982000089819A810F9018
:1007E0000F90DF91CF910895CF93DF9300D01F92A8
:1007F000CDB7DEB79B838A838A819B81892B79F46D
:1008000080914201882F90E09695982F88279795A0
:100810008795982F80914501892B898303C01B827E
:100820001A82000085E290E020911D01FC012083E6
:100830008A819B810F900F900F90DF91CF91089547
:100840000F931F93CF93DF93CDB7DEB761970FB6AA
:10085000F894DEBF0FBECDBF84E290E02FEFFC0125
:10086000208385E290E0FC01108287E290E020EF97
:10087000FC01208388E290E02FE0FC01208386E0E9
:10088000E2E1F1E0DE011C9601900D928A95E1F71C
:1008900083E090E09A8789878FEF8B878B858093A1
:1008A0001E0182E390E0A0E0B0E080931F019093EE
:1008B0002001A0932101B093220180911F0190910A
:1008C0002001A0912101B0912201809323019093F6
:1008D0002401A0932501B09326018BE393E090932C
:1008E0002801809327018B858093290182E390E082
:1008F000A0E0B0E080932A0190932B01A0932C01FB
:10090000B0932D0180912A0190912B01A0912C018F
:10091000B0912D0180932E0190932F01A09330016F
:10092000B093310180ED93E09093330180933201D5
:100930008B858093340182E390E0A0E0B0E0809367
:10094000350190933601A0933701B093380180911F
:10095000350190913601A0913701B0913801809313
:10096000390190933A01A0933B01B0933C0184EF8D
:1009700093E090933E0180933D018C859D85FC0121
:1009800081819281A381B48189839A83AB83BC8363
:1009900081E090E09E838D8325C08D819E81880FAC
:1009A000991F9E012F5F3F4F820F931F0B96FC01F3
:1009B00080819181FC01218132814381548189812F
:1009C0009A81AB81BC81BC01CD010E941002DC0187
:1009D000CB0189839A83AB83BC838D819E810196F1
:1009E0009E838D832D813E8189859A8528173907BD
:1009F000A0F289819A81AB81BC81BC01CD010E94AA
:100A00005D020E948B0218861F82A0C08F8198858C
:100A1000880F991F9E012F5F3F4F820F931F0B96E8
:100A2000FC0180819181FC012581368147815085BF
:100A30008F819885880F991FBE016F5F7F4F860F4A
:100A4000971F0B96FC0180819181FC01818192812D
:100A5000A381B481281739074A075B0709F045C00D
:100A60008F819885880F991F9E012F5F3F4F820FBE
:100A7000931F0B96FC01008111818F819885880F4F
:100A8000991F9E012F5F3F4F820F931F0B96FC0112
:100A900080819181FC01218532858F819885880F25
:100AA000991FAE014F5F5F4F840F951F0B96FC019E
:100AB00080819181FC018081082E000C990BF90145
:100AC0000995F80180838F819885880F991F9E0171
:100AD0002F5F3F4F820F931F0B96FC018081918106
:100AE000FC0115821682178210868F819885880FE7
:100AF000991F9E012F5F3F4F820F931F0B96FC01A2
:100B0000608171818F819885880F991F9E012F5F69
:100B10003F4F820F931F0B96FC0180819181FC0156
:100B2000258136814781508589819A81AB81BC813D
:100B3000820F931FA41FB51FFB0185839683A78394
:100B4000B0878F819885019698878F832F8138850C
:100B500089859A852817390708F458CF00008091B5
:100B600018018823E1F3109218014DCFA1E21A2E4B
:100B7000AA1BBB1BFD010DC0AA1FBB1FEE1FFF1F41
:100B8000A217B307E407F50720F0A21BB30BE40B91
:100B9000F50B661F771F881F991F1A9469F76095D8
:100BA0007095809590959B01AC01BD01CF01089592
:100BB000EE0FFF1F0024001C0BBE0790F691E02DE6
:060BC0000994F894FFCF38
:100BC6000000000200000000AC0000000000010070
:080BD60000001E012901340199
:00000001FF
