:100000000C9446000C9465000C9465000C946500FB
:100010000C9465000C9465000C9465000C946500CC
:100020000C9465000C9465000C9465000C946500BC
:100030000C9465000C9494020C9465000C9465007B
:100040000C9465000C9465000C9465000C9465009C
:100050000C9465000C9465000C9465000C9465008C
:100060000C9465000C9465000C9465000C9465007C
:100070000C9465000C9465000C9465000C9465006C
:100080000C9465000C9465000C94650011241FBE4F
:10009000CFEFD0E4DEBFCDBF11E0A0E0B1E0E6E7F6
:1000A000FBE000E00BBF02C007900D92AA31B10740
:1000B000D9F721E0AAE1B1E001C01D92AB34B2074B
:1000C000E1F70E94F7030C94B9050C940000CF935C
:1000D000DF9300D01F92CDB7DEB789837B836A831D
:1000E00089818A3031F48A819B81BC018DE00E9434
:1000F000670080EC90E0FC018081882F90E08072A6
:100100009927892BB1F386EC90E02981FC012083AB
:1001100080E090E00F900F900F90DF91CF910895C5
:10012000CF93DF9300D01F92CDB7DEB789836A8368
:100130004B838B81882371F08A81282F30E081E006
:1001400090E002C0880F991F2A95E2F7982F8981C5
:10015000892B0EC08A81282F30E081E090E002C018
:10016000880F991F2A95E2F7982F90958981892306
:100170000F900F900F90DF91CF910895CF93DF9361
:1001800000D0CDB7DEB789836A838A81282F30E01B
:1001900081E090E002C0880F991F2A95E2F7982F1E
:1001A000898189230F900F90DF91CF9108950F934C
:1001B0001F93CF93DF93CDB7DEB708E210E040E0A6
:1001C00064E08FEF0E949000F8018083000086E2D7
:1001D00090E0FC018081809560E00E94BE00882351
:1001E00011F081E3D3C086E290E0FC01808180952C
:1001F00061E00E94BE00882311F084E3C7C086E25C
:1002000090E0FC018081809562E00E94BE0088231E
:1002100011F087E3BBC086E290E0FC01808180950D
:1002200063E00E94BE00882311F08AE2AFC008E2BA
:1002300010E040E065E08FEF0E949000F8018083BD
:10024000000086E290E0FC018081809560E00E94E1
:10025000BE00882311F082E399C086E290E0FC01A1
:100260008081809561E00E94BE00882311F085E3C3
:100270008DC086E290E0FC018081809562E00E9462
:10028000BE00882311F088E381C086E290E0FC0183
:100290008081809563E00E94BE00882311F080E396
:1002A00075C008E210E040E066E08FEF0E94900029
:1002B000F8018083000086E290E0FC018081809557
:1002C00060E00E94BE00882311F083E35FC086E2F5
:1002D00090E0FC018081809561E00E94BE0088234F
:1002E00011F086E353C086E290E0FC0180818095A6
:1002F00062E00E94BE00882311F089E347C086E2D5
:1003000090E0FC018081809563E00E94BE0088231C
:1003100011F083E23BC008E210E040E067E08FEFBD
:100320000E949000F8018083000086E290E0FC01CA
:100330008081809560E00E94BE00882311F081E4F6
:1003400025C086E290E0FC018081809561E00E94FA
:10035000BE00882311F082E419C086E290E0FC011F
:100360008081809562E00E94BE00882311F083E4C2
:100370000DC086E290E0FC018081809563E00E94E0
:10038000BE00882311F084E401C080E0DF91CF91AA
:100390001F910F910895CF93DF93CDB7DEB72C97C0
:1003A0000FB6F894DEBF0FBECDBF6D837E838F8303
:1003B000988729873A874B875C878D819E81AF819B
:1003C000B88529853A854B855C85BC01CD010E94A5
:1003D0009705DC01CB0189839A83AB83BC83898138
:1003E0009A81AB81BC81892B8A2B8B2B29F489853F
:1003F0009A85AB85BC8511C089859A85AB85BC85FE
:100400008D839E83AF83B88789819A81AB81BC81BC
:1004100089879A87AB87BC87D0CFBC01CD012C964A
:100420000FB6F894DEBF0FBECDBFDF91CF91089518
:10043000CF93DF9300D000D0CDB7DEB769837A8346
:100440008B839C8389819A81AB81BC8180930E01CF
:1004500090930F01A0931001B093110180910E01B0
:1004600090910F01A0911001B091110180931B0197
:1004700090931C01A0931D01B0931E0100000F90EA
:100480000F900F900F90DF91CF910895CF93DF934E
:10049000CDB7DEB781E890E02BE0FC01208388E84F
:1004A00090E02DE730E0FC01318320838FE690E07F
:1004B00022E0FC01208384E890E0FC01118210829C
:1004C00080910E0190910F01A0911001B091110146
:1004D00080931B0190931C01A0931D01B0931E01FA
:1004E0008FE590E02FE530E0F90120812068FC01E4
:1004F00020830000DF91CF910895CF93DF93CDB794
:10050000DEB781E890E0FC0110820000DF91CF911E
:100510000895CF93DF93CDB7DEB781E080931A01C2
:100520000000DF91CF9108951F920F9200905F001D
:100530000F92112400905B000F922F933F934F93E3
:100540005F936F937F938F939F93AF93BF93EF933B
:10055000FF93CF93DF93CDB7DEB780911B019091CE
:100560001C01A0911D01B0911E010197A109B109C3
:1005700080931B0190931C01A0931D01B0931E0159
:1005800080911B0190911C01A0911D01B0911E0151
:10059000892B8A2B8B2B91F40E94890280910E016A
:1005A00090910F01A0911001B091110180931B0156
:1005B00090931C01A0931D01B0931E010000DF91D8
:1005C000CF91FF91EF91BF91AF919F918F917F91CB
:1005D0006F915F914F913F912F910F9000925B002F
:1005E0000F9000925F000F901F901895CF93DF93AC
:1005F00000D01F92CDB7DEB79B838A8380914801DC
:1006000090914901009721F0019709F45CC07FC0E7
:100610000E94D70089838981833221F481E080930D
:10062000200102C01092200180912001813039F414
:100630008981813321F482E08093200102C01092ED
:10064000200180912001823039F48981823321F4A4
:1006500083E08093200102C010922001809120014C
:10066000833031F483E3898384E08093200102C0E6
:100670001092200180912001843039F489818433E3
:1006800021F485E08093200102C010922001809126
:100690002001853039F48981853321F481E080930C
:1006A000210102C0109221018981882339F081E063
:1006B00090E090934901809348012EC01092490127
:1006C0001092480129C0809147018F3159F08091E3
:1006D0001F01882339F010921F01109249011092D6
:1006E00048011AC0809147018F3151F481E0809315
:1006F0001F0181E090E090934901809348010CC074
:1007000081E090E0909349018093480105C01092E8
:1007100049011092480100008091480190914901DF
:100720000F900F900F90DF91CF910895CF93DF93AB
:1007300000D0CDB7DEB79A83898389819A81892BCE
:1007400051F480914A01813019F481E080931201C3
:100750001A82198203C01A821982000089819A8143
:100760000F900F90DF91CF910895CF93DF9300D03A
:1007700000D000D0CDB7DEB79E838D8319821A8258
:100780008D819E81892B01F50E94D7008B838B81FF
:10079000882319F082E08A8301C01A8280912101A6
:1007A000882331F081E08C838A818C5F8A8308C042
:1007B00080911201882321F01C828A81885F8A83BC
:1007C00080912001898303C01E821D82000085E282
:1007D00090E02981FC0120838D819E8126960FB6B1
:1007E000F894DEBF0FBECDBFDF91CF9108950F9378
:1007F0001F93CF93DF93CDB7DEB761970FB6F89411
:10080000DEBF0FBECDBF84E290E02FE7FC01208366
:1008100085E290E020E8FC01208387E290E020EF71
:10082000FC01208388E290E02FE0FC01208386E039
:10083000E3E1F1E0DE011C9601900D928A95E1F76B
:1008400083E090E09A8789878FEF8B878B858093F1
:10085000220182E390E0A0E0B0E080932301909336
:100860002401A0932501B09326018091230190914A
:100870002401A0912501B091260180932701909336
:100880002801A0932901B0932A0186EF92E090936A
:100890002C0180932B018B8580932D0182E390E0C6
:1008A000A0E0B0E080932E0190932F01A09330013F
:1008B000B093310180912E0190912F01A0913001D0
:1008C000B09131018093320190933301A0933401B0
:1008D000B093350186E993E0909337018093360118
:1008E0008B858093380182E390E0A0E0B0E08093B4
:1008F000390190933A01A0933B01B0933C01809160
:10090000390190913A01A0913B01B0913C01809353
:100910003D0190933E01A0933F01B093400185EBD0
:1009200093E090934201809341018C859D85FC0169
:1009300081819281A381B48189839A83AB83BC83B3
:1009400081E090E09E838D8325C08D819E81880FFC
:10095000991F9E012F5F3F4F820F931F0B96FC0143
:1009600080819181FC01218132814381548189817F
:100970009A81AB81BC81BC01CD010E94CB01DC011D
:10098000CB0189839A83AB83BC838D819E81019641
:100990009E838D832D813E8189859A85281739070D
:1009A000A0F289819A81AB81BC81BC01CD010E94FA
:1009B00018020E94460285E290E0FC018081881FB7
:1009C0008827881F80934A0118861F82A0C08F81C4
:1009D0009885880F991F9E012F5F3F4F820F931FAD
:1009E0000B96FC0180819181FC0125813681478134
:1009F00050858F819885880F991FBE016F5F7F4F4B
:100A0000860F971F0B96FC0180819181FC018181EB
:100A10009281A381B481281739074A075B0709F03F
:100A200045C08F819885880F991F9E012F5F3F4F8A
:100A3000820F931F0B96FC01008111818F81988595
:100A4000880F991F9E012F5F3F4F820F931F0B96B8
:100A5000FC0180819181FC01218532858F819885FF
:100A6000880F991FAE014F5F5F4F840F951F0B9644
:100A7000FC0180819181FC018081082E000C990B82
:100A8000F9010995F80180838F819885880F991F56
:100A90009E012F5F3F4F820F931F0B96FC018081B9
:100AA0009181FC0115821682178210868F819885AC
:100AB000880F991F9E012F5F3F4F820F931F0B9648
:100AC000FC01608171818F819885880F991F9E013B
:100AD0002F5F3F4F820F931F0B96FC018081918106
:100AE000FC01258136814781508589819A81AB81BE
:100AF000BC81820F931FA41FB51FFB0185839683C2
:100B0000A783B0878F819885019698878F832F81DF
:100B1000388589859A852817390708F458CF000049
:100B200080911A018823E1F310921A0144CFA1E2C7
:100B30001A2EAA1BBB1BFD010DC0AA1FBB1FEE1F57
:100B4000FF1FA217B307E407F50720F0A21BB30BA2
:100B5000E40BF50B661F771F881F991F1A9469F71E
:100B600060957095809590959B01AC01BD01CF017A
:060B70000895F894FFCF88
:100B76000000000200000000670000000000010005
:0A0B860000000122012D01380100DA
:00000001FF
